{
  "contractName": "BlockchainBites",
  "abi": [
    {
      "inputs": [],
      "stateMutability": "nonpayable",
      "type": "constructor"
    },
    {
      "anonymous": false,
      "inputs": [
        {
          "indexed": true,
          "internalType": "address",
          "name": "owner",
          "type": "address"
        },
        {
          "indexed": true,
          "internalType": "address",
          "name": "approved",
          "type": "address"
        },
        {
          "indexed": true,
          "internalType": "uint256",
          "name": "tokenId",
          "type": "uint256"
        }
      ],
      "name": "Approval",
      "type": "event"
    },
    {
      "anonymous": false,
      "inputs": [
        {
          "indexed": true,
          "internalType": "address",
          "name": "owner",
          "type": "address"
        },
        {
          "indexed": true,
          "internalType": "address",
          "name": "operator",
          "type": "address"
        },
        {
          "indexed": false,
          "internalType": "bool",
          "name": "approved",
          "type": "bool"
        }
      ],
      "name": "ApprovalForAll",
      "type": "event"
    },
    {
      "anonymous": false,
      "inputs": [
        {
          "indexed": false,
          "internalType": "address",
          "name": "donor",
          "type": "address"
        }
      ],
      "name": "DonorRegistered",
      "type": "event"
    },
    {
      "anonymous": false,
      "inputs": [
        {
          "indexed": true,
          "internalType": "address",
          "name": "donor",
          "type": "address"
        },
        {
          "indexed": false,
          "internalType": "uint256[]",
          "name": "tokenIds",
          "type": "uint256[]"
        }
      ],
      "name": "FoodDonated",
      "type": "event"
    },
    {
      "anonymous": false,
      "inputs": [
        {
          "indexed": true,
          "internalType": "address",
          "name": "owner",
          "type": "address"
        },
        {
          "indexed": false,
          "internalType": "uint256",
          "name": "tokenId",
          "type": "uint256"
        }
      ],
      "name": "FoodOwnershipTransferred",
      "type": "event"
    },
    {
      "anonymous": false,
      "inputs": [
        {
          "indexed": true,
          "internalType": "address",
          "name": "previousOwner",
          "type": "address"
        },
        {
          "indexed": true,
          "internalType": "address",
          "name": "newOwner",
          "type": "address"
        }
      ],
      "name": "OwnershipTransferred",
      "type": "event"
    },
    {
      "anonymous": false,
      "inputs": [
        {
          "indexed": true,
          "internalType": "address",
          "name": "from",
          "type": "address"
        },
        {
          "indexed": true,
          "internalType": "address",
          "name": "to",
          "type": "address"
        },
        {
          "indexed": true,
          "internalType": "uint256",
          "name": "tokenId",
          "type": "uint256"
        }
      ],
      "name": "Transfer",
      "type": "event"
    },
    {
      "anonymous": false,
      "inputs": [
        {
          "indexed": false,
          "internalType": "address",
          "name": "user",
          "type": "address"
        }
      ],
      "name": "UserRegistered",
      "type": "event"
    },
    {
      "inputs": [
        {
          "internalType": "address",
          "name": "to",
          "type": "address"
        },
        {
          "internalType": "uint256",
          "name": "tokenId",
          "type": "uint256"
        }
      ],
      "name": "approve",
      "outputs": [],
      "stateMutability": "nonpayable",
      "type": "function"
    },
    {
      "inputs": [
        {
          "internalType": "address",
          "name": "owner",
          "type": "address"
        }
      ],
      "name": "balanceOf",
      "outputs": [
        {
          "internalType": "uint256",
          "name": "",
          "type": "uint256"
        }
      ],
      "stateMutability": "view",
      "type": "function",
      "constant": true
    },
    {
      "inputs": [
        {
          "internalType": "uint256",
          "name": "",
          "type": "uint256"
        }
      ],
      "name": "foods",
      "outputs": [
        {
          "internalType": "string",
          "name": "name",
          "type": "string"
        },
        {
          "internalType": "uint256",
          "name": "quantity",
          "type": "uint256"
        },
        {
          "internalType": "uint256",
          "name": "expiryDate",
          "type": "uint256"
        },
        {
          "internalType": "bool",
          "name": "isGiven",
          "type": "bool"
        }
      ],
      "stateMutability": "view",
      "type": "function",
      "constant": true
    },
    {
      "inputs": [
        {
          "internalType": "uint256",
          "name": "tokenId",
          "type": "uint256"
        }
      ],
      "name": "getApproved",
      "outputs": [
        {
          "internalType": "address",
          "name": "",
          "type": "address"
        }
      ],
      "stateMutability": "view",
      "type": "function",
      "constant": true
    },
    {
      "inputs": [
        {
          "internalType": "address",
          "name": "owner",
          "type": "address"
        },
        {
          "internalType": "address",
          "name": "operator",
          "type": "address"
        }
      ],
      "name": "isApprovedForAll",
      "outputs": [
        {
          "internalType": "bool",
          "name": "",
          "type": "bool"
        }
      ],
      "stateMutability": "view",
      "type": "function",
      "constant": true
    },
    {
      "inputs": [],
      "name": "name",
      "outputs": [
        {
          "internalType": "string",
          "name": "",
          "type": "string"
        }
      ],
      "stateMutability": "view",
      "type": "function",
      "constant": true
    },
    {
      "inputs": [],
      "name": "owner",
      "outputs": [
        {
          "internalType": "address",
          "name": "",
          "type": "address"
        }
      ],
      "stateMutability": "view",
      "type": "function",
      "constant": true
    },
    {
      "inputs": [
        {
          "internalType": "uint256",
          "name": "tokenId",
          "type": "uint256"
        }
      ],
      "name": "ownerOf",
      "outputs": [
        {
          "internalType": "address",
          "name": "",
          "type": "address"
        }
      ],
      "stateMutability": "view",
      "type": "function",
      "constant": true
    },
    {
      "inputs": [
        {
          "internalType": "address",
          "name": "",
          "type": "address"
        }
      ],
      "name": "registeredDonors",
      "outputs": [
        {
          "internalType": "bool",
          "name": "",
          "type": "bool"
        }
      ],
      "stateMutability": "view",
      "type": "function",
      "constant": true
    },
    {
      "inputs": [
        {
          "internalType": "address",
          "name": "",
          "type": "address"
        }
      ],
      "name": "registeredUsers",
      "outputs": [
        {
          "internalType": "bool",
          "name": "",
          "type": "bool"
        }
      ],
      "stateMutability": "view",
      "type": "function",
      "constant": true
    },
    {
      "inputs": [],
      "name": "renounceOwnership",
      "outputs": [],
      "stateMutability": "nonpayable",
      "type": "function"
    },
    {
      "inputs": [
        {
          "internalType": "address",
          "name": "from",
          "type": "address"
        },
        {
          "internalType": "address",
          "name": "to",
          "type": "address"
        },
        {
          "internalType": "uint256",
          "name": "tokenId",
          "type": "uint256"
        }
      ],
      "name": "safeTransferFrom",
      "outputs": [],
      "stateMutability": "nonpayable",
      "type": "function"
    },
    {
      "inputs": [
        {
          "internalType": "address",
          "name": "from",
          "type": "address"
        },
        {
          "internalType": "address",
          "name": "to",
          "type": "address"
        },
        {
          "internalType": "uint256",
          "name": "tokenId",
          "type": "uint256"
        },
        {
          "internalType": "bytes",
          "name": "data",
          "type": "bytes"
        }
      ],
      "name": "safeTransferFrom",
      "outputs": [],
      "stateMutability": "nonpayable",
      "type": "function"
    },
    {
      "inputs": [
        {
          "internalType": "address",
          "name": "operator",
          "type": "address"
        },
        {
          "internalType": "bool",
          "name": "approved",
          "type": "bool"
        }
      ],
      "name": "setApprovalForAll",
      "outputs": [],
      "stateMutability": "nonpayable",
      "type": "function"
    },
    {
      "inputs": [
        {
          "internalType": "bytes4",
          "name": "interfaceId",
          "type": "bytes4"
        }
      ],
      "name": "supportsInterface",
      "outputs": [
        {
          "internalType": "bool",
          "name": "",
          "type": "bool"
        }
      ],
      "stateMutability": "view",
      "type": "function",
      "constant": true
    },
    {
      "inputs": [],
      "name": "symbol",
      "outputs": [
        {
          "internalType": "string",
          "name": "",
          "type": "string"
        }
      ],
      "stateMutability": "view",
      "type": "function",
      "constant": true
    },
    {
      "inputs": [
        {
          "internalType": "uint256",
          "name": "tokenId",
          "type": "uint256"
        }
      ],
      "name": "tokenURI",
      "outputs": [
        {
          "internalType": "string",
          "name": "",
          "type": "string"
        }
      ],
      "stateMutability": "view",
      "type": "function",
      "constant": true
    },
    {
      "inputs": [
        {
          "internalType": "address",
          "name": "from",
          "type": "address"
        },
        {
          "internalType": "address",
          "name": "to",
          "type": "address"
        },
        {
          "internalType": "uint256",
          "name": "tokenId",
          "type": "uint256"
        }
      ],
      "name": "transferFrom",
      "outputs": [],
      "stateMutability": "nonpayable",
      "type": "function"
    },
    {
      "inputs": [
        {
          "internalType": "address",
          "name": "newOwner",
          "type": "address"
        }
      ],
      "name": "transferOwnership",
      "outputs": [],
      "stateMutability": "nonpayable",
      "type": "function"
    },
    {
      "inputs": [],
      "name": "registerAsDonors",
      "outputs": [],
      "stateMutability": "nonpayable",
      "type": "function"
    },
    {
      "inputs": [],
      "name": "registerAsUsers",
      "outputs": [],
      "stateMutability": "nonpayable",
      "type": "function"
    },
    {
      "inputs": [
        {
          "internalType": "string",
          "name": "name",
          "type": "string"
        },
        {
          "internalType": "uint256",
          "name": "quantity",
          "type": "uint256"
        },
        {
          "internalType": "uint256",
          "name": "expiryDate",
          "type": "uint256"
        }
      ],
      "name": "donateFood",
      "outputs": [],
      "stateMutability": "payable",
      "type": "function",
      "payable": true
    },
    {
      "inputs": [],
      "name": "viewFoodItems",
      "outputs": [
        {
          "internalType": "uint256[]",
          "name": "",
          "type": "uint256[]"
        },
        {
          "components": [
            {
              "internalType": "string",
              "name": "name",
              "type": "string"
            },
            {
              "internalType": "uint256",
              "name": "quantity",
              "type": "uint256"
            },
            {
              "internalType": "uint256",
              "name": "expiryDate",
              "type": "uint256"
            },
            {
              "internalType": "bool",
              "name": "isGiven",
              "type": "bool"
            }
          ],
          "internalType": "struct BlockchainBites.Food[]",
          "name": "",
          "type": "tuple[]"
        }
      ],
      "stateMutability": "nonpayable",
      "type": "function"
    },
    {
      "inputs": [
        {
          "internalType": "uint256",
          "name": "donatedtokenId",
          "type": "uint256"
        }
      ],
      "name": "decrementFoodItem",
      "outputs": [],
      "stateMutability": "nonpayable",
      "type": "function"
    },
    {
      "inputs": [
        {
          "internalType": "address",
          "name": "to",
          "type": "address"
        },
        {
          "internalType": "uint256",
          "name": "donatedtokenId",
          "type": "uint256"
        }
      ],
      "name": "transferFoodToUser",
      "outputs": [],
      "stateMutability": "nonpayable",
      "type": "function"
    },
    {
      "inputs": [
        {
          "internalType": "address",
          "name": "",
          "type": "address"
        },
        {
          "internalType": "address",
          "name": "",
          "type": "address"
        },
        {
          "internalType": "uint256",
          "name": "",
          "type": "uint256"
        },
        {
          "internalType": "bytes",
          "name": "",
          "type": "bytes"
        }
      ],
      "name": "onERC721Received",
      "outputs": [
        {
          "internalType": "bytes4",
          "name": "",
          "type": "bytes4"
        }
      ],
      "stateMutability": "pure",
      "type": "function",
      "constant": true
    }
  ],
  "bytecode": "0x608060405260006007553480156200001657600080fd5b506040518060400160405280600981526020017f466f6f64546f6b656e00000000000000000000000000000000000000000000008152506040518060400160405280600281526020017f4654000000000000000000000000000000000000000000000000000000000000815250816000908162000094919062000417565b508060019081620000a6919062000417565b505050620000c9620000bd620000cf60201b60201c565b620000d760201b60201c565b620004fe565b600033905090565b6000600660009054906101000a900473ffffffffffffffffffffffffffffffffffffffff16905081600660006101000a81548173ffffffffffffffffffffffffffffffffffffffff021916908373ffffffffffffffffffffffffffffffffffffffff1602179055508173ffffffffffffffffffffffffffffffffffffffff168173ffffffffffffffffffffffffffffffffffffffff167f8be0079c531659141344cd1fd0a4f28419497f9722a3daafe3b4186f6b6457e060405160405180910390a35050565b600081519050919050565b7f4e487b7100000000000000000000000000000000000000000000000000000000600052604160045260246000fd5b7f4e487b7100000000000000000000000000000000000000000000000000000000600052602260045260246000fd5b600060028204905060018216806200021f57607f821691505b602082108103620002355762000234620001d7565b5b50919050565b60008190508160005260206000209050919050565b60006020601f8301049050919050565b600082821b905092915050565b6000600883026200029f7fffffffffffffffffffffffffffffffffffffffffffffffffffffffffffffffff8262000260565b620002ab868362000260565b95508019841693508086168417925050509392505050565b6000819050919050565b6000819050919050565b6000620002f8620002f2620002ec84620002c3565b620002cd565b620002c3565b9050919050565b6000819050919050565b6200031483620002d7565b6200032c6200032382620002ff565b8484546200026d565b825550505050565b600090565b6200034362000334565b6200035081848462000309565b505050565b5b8181101562000378576200036c60008262000339565b60018101905062000356565b5050565b601f821115620003c75762000391816200023b565b6200039c8462000250565b81016020851015620003ac578190505b620003c4620003bb8562000250565b83018262000355565b50505b505050565b600082821c905092915050565b6000620003ec60001984600802620003cc565b1980831691505092915050565b6000620004078383620003d9565b9150826002028217905092915050565b62000422826200019d565b67ffffffffffffffff8111156200043e576200043d620001a8565b5b6200044a825462000206565b620004578282856200037c565b600060209050601f8311600181146200048f57600084156200047a578287015190505b620004868582620003f9565b865550620004f6565b601f1984166200049f866200023b565b60005b82811015620004c957848901518255600182019150602085019450602081019050620004a2565b86831015620004e95784890151620004e5601f891682620003d9565b8355505b6001600288020188555050505b505050505050565b614366806200050e6000396000f3fe6080604052600436106101815760003560e01c8063715018a6116100d1578063b88d4fde1161008a578063d51c049f11610064578063d51c049f1461059b578063db4873e9146105c4578063e985e9c5146105db578063f2fde38b1461061857610181565b8063b88d4fde1461051e578063bdabda7114610547578063c87b56dd1461055e57610181565b8063715018a61461042f5780638da5cb5b1461044657806395d89b4114610471578063a150bf601461049c578063a22cb465146104b8578063b6793014146104e157610181565b8063150b7a021161013e578063492ba88c11610118578063492ba88c146103605780636352211e146103895780636f999013146103c657806370a08231146103f257610181565b8063150b7a02146102d157806323b872dd1461030e57806342842e0e1461033757610181565b806301ffc9a71461018657806306fdde03146101c3578063081812fc146101ee578063095ea7b31461022b5780630e50cee51461025457806314d3f10e14610291575b600080fd5b34801561019257600080fd5b506101ad60048036038101906101a89190612a7b565b610641565b6040516101ba9190612ac3565b60405180910390f35b3480156101cf57600080fd5b506101d8610723565b6040516101e59190612b6e565b60405180910390f35b3480156101fa57600080fd5b5061021560048036038101906102109190612bc6565b6107b5565b6040516102229190612c34565b60405180910390f35b34801561023757600080fd5b50610252600480360381019061024d9190612c7b565b6107fb565b005b34801561026057600080fd5b5061027b60048036038101906102769190612cbb565b610912565b6040516102889190612ac3565b60405180910390f35b34801561029d57600080fd5b506102b860048036038101906102b39190612bc6565b610932565b6040516102c89493929190612cf7565b60405180910390f35b3480156102dd57600080fd5b506102f860048036038101906102f39190612da8565b6109f7565b6040516103059190612e3f565b60405180910390f35b34801561031a57600080fd5b5061033560048036038101906103309190612e5a565b610a25565b005b34801561034357600080fd5b5061035e60048036038101906103599190612e5a565b610a85565b005b34801561036c57600080fd5b5061038760048036038101906103829190612bc6565b610aa5565b005b34801561039557600080fd5b506103b060048036038101906103ab9190612bc6565b610c5c565b6040516103bd9190612c34565b60405180910390f35b3480156103d257600080fd5b506103db610ce2565b6040516103e99291906130e9565b60405180910390f35b3480156103fe57600080fd5b5061041960048036038101906104149190612cbb565b61113c565b6040516104269190613120565b60405180910390f35b34801561043b57600080fd5b506104446111f3565b005b34801561045257600080fd5b5061045b611207565b6040516104689190612c34565b60405180910390f35b34801561047d57600080fd5b50610486611231565b6040516104939190612b6e565b60405180910390f35b6104b660048036038101906104b1919061326b565b6112c3565b005b3480156104c457600080fd5b506104df60048036038101906104da9190613306565b6114ef565b005b3480156104ed57600080fd5b5061050860048036038101906105039190612cbb565b611505565b6040516105159190612ac3565b60405180910390f35b34801561052a57600080fd5b50610545600480360381019061054091906133e7565b611525565b005b34801561055357600080fd5b5061055c611587565b005b34801561056a57600080fd5b5061058560048036038101906105809190612bc6565b6116fb565b6040516105929190612b6e565b60405180910390f35b3480156105a757600080fd5b506105c260048036038101906105bd9190612c7b565b611763565b005b3480156105d057600080fd5b506105d9611832565b005b3480156105e757600080fd5b5061060260048036038101906105fd919061346a565b6119a6565b60405161060f9190612ac3565b60405180910390f35b34801561062457600080fd5b5061063f600480360381019061063a9190612cbb565b611a3a565b005b60007f80ac58cd000000000000000000000000000000000000000000000000000000007bffffffffffffffffffffffffffffffffffffffffffffffffffffffff1916827bffffffffffffffffffffffffffffffffffffffffffffffffffffffff1916148061070c57507f5b5e139f000000000000000000000000000000000000000000000000000000007bffffffffffffffffffffffffffffffffffffffffffffffffffffffff1916827bffffffffffffffffffffffffffffffffffffffffffffffffffffffff1916145b8061071c575061071b82611abd565b5b9050919050565b606060008054610732906134d9565b80601f016020809104026020016040519081016040528092919081815260200182805461075e906134d9565b80156107ab5780601f10610780576101008083540402835291602001916107ab565b820191906000526020600020905b81548152906001019060200180831161078e57829003601f168201915b5050505050905090565b60006107c082611b27565b6004600083815260200190815260200160002060009054906101000a900473ffffffffffffffffffffffffffffffffffffffff169050919050565b600061080682610c5c565b90508073ffffffffffffffffffffffffffffffffffffffff168373ffffffffffffffffffffffffffffffffffffffff1603610876576040517f08c379a000000000000000000000000000000000000000000000000000000000815260040161086d9061357c565b60405180910390fd5b8073ffffffffffffffffffffffffffffffffffffffff16610895611b72565b73ffffffffffffffffffffffffffffffffffffffff1614806108c457506108c3816108be611b72565b6119a6565b5b610903576040517f08c379a00000000000000000000000000000000000000000000000000000000081526004016108fa9061360e565b60405180910390fd5b61090d8383611b7a565b505050565b600a6020528060005260406000206000915054906101000a900460ff1681565b6008602052806000526040600020600091509050806000018054610955906134d9565b80601f0160208091040260200160405190810160405280929190818152602001828054610981906134d9565b80156109ce5780601f106109a3576101008083540402835291602001916109ce565b820191906000526020600020905b8154815290600101906020018083116109b157829003601f168201915b5050505050908060010154908060020154908060030160009054906101000a900460ff16905084565b60007f150b7a023d4804d13e8c85fb27262cb750cf6ba9f9dd3bb30d90f482ceeb4b1f905095945050505050565b610a36610a30611b72565b82611c33565b610a75576040517f08c379a0000000000000000000000000000000000000000000000000000000008152600401610a6c906136a0565b60405180910390fd5b610a80838383611cc8565b505050565b610aa083838360405180602001604052806000815250611525565b505050565b80610aaf81611fc1565b610aee576040517f08c379a0000000000000000000000000000000000000000000000000000000008152600401610ae59061370c565b60405180910390fd5b3073ffffffffffffffffffffffffffffffffffffffff16610b0e82610c5c565b73ffffffffffffffffffffffffffffffffffffffff1614610b64576040517f08c379a0000000000000000000000000000000000000000000000000000000008152600401610b5b9061379e565b60405180910390fd5b60006008600084815260200190815260200160002090506000816001015411610bc2576040517f08c379a0000000000000000000000000000000000000000000000000000000008152600401610bb99061380a565b60405180910390fd5b610bda6001826001015461200290919063ffffffff16565b816001018190555060018160030160006101000a81548160ff021916908315150217905550610c093384611763565b3373ffffffffffffffffffffffffffffffffffffffff167f9c87deaa9d78754cb97472f7c279e47ca09dc57bbf9ded722dbef689d37c6feb84604051610c4f9190613120565b60405180910390a2505050565b600080610c6883612018565b9050600073ffffffffffffffffffffffffffffffffffffffff168173ffffffffffffffffffffffffffffffffffffffff1603610cd9576040517f08c379a0000000000000000000000000000000000000000000000000000000008152600401610cd090613876565b60405180910390fd5b80915050919050565b6060806000610cef611207565b90506000600a60003373ffffffffffffffffffffffffffffffffffffffff1673ffffffffffffffffffffffffffffffffffffffff16815260200190815260200160002060009054906101000a900460ff1690506000600960003373ffffffffffffffffffffffffffffffffffffffff1673ffffffffffffffffffffffffffffffffffffffff16815260200190815260200160002060009054906101000a900460ff169050600060075467ffffffffffffffff811115610db157610db0613140565b5b604051908082528060200260200182016040528015610ddf5781602001602082028036833780820191505090505b509050600060075467ffffffffffffffff811115610e0057610dff613140565b5b604051908082528060200260200182016040528015610e3957816020015b610e266129e5565b815260200190600190039081610e1e5790505b509050600080600190505b6007548111610ff25760008773ffffffffffffffffffffffffffffffffffffffff16610e6f83610c5c565b73ffffffffffffffffffffffffffffffffffffffff16149050868015610e925750805b15610e9d5750610fdf565b858015610ea75750805b15610eb25750610fdf565b81858481518110610ec657610ec5613896565b5b60200260200101818152505060086000838152602001908152602001600020604051806080016040529081600082018054610f00906134d9565b80601f0160208091040260200160405190810160405280929190818152602001828054610f2c906134d9565b8015610f795780601f10610f4e57610100808354040283529160200191610f79565b820191906000526020600020905b815481529060010190602001808311610f5c57829003601f168201915b5050505050815260200160018201548152602001600282015481526020016003820160009054906101000a900460ff161515151581525050848481518110610fc457610fc3613896565b5b60200260200101819052508280610fda906138f4565b935050505b8080610fea906138f4565b915050610e44565b5060008167ffffffffffffffff81111561100f5761100e613140565b5b60405190808252806020026020018201604052801561103d5781602001602082028036833780820191505090505b50905060008267ffffffffffffffff81111561105c5761105b613140565b5b60405190808252806020026020018201604052801561109557816020015b6110826129e5565b81526020019060019003908161107a5790505b50905060005b83811015611129578581815181106110b6576110b5613896565b5b60200260200101518382815181106110d1576110d0613896565b5b6020026020010181815250508481815181106110f0576110ef613896565b5b602002602001015182828151811061110b5761110a613896565b5b60200260200101819052508080611121906138f4565b91505061109b565b5081819950995050505050505050509091565b60008073ffffffffffffffffffffffffffffffffffffffff168273ffffffffffffffffffffffffffffffffffffffff16036111ac576040517f08c379a00000000000000000000000000000000000000000000000000000000081526004016111a3906139ae565b60405180910390fd5b600360008373ffffffffffffffffffffffffffffffffffffffff1673ffffffffffffffffffffffffffffffffffffffff168152602001908152602001600020549050919050565b6111fb612055565b61120560006120d3565b565b6000600660009054906101000a900473ffffffffffffffffffffffffffffffffffffffff16905090565b606060018054611240906134d9565b80601f016020809104026020016040519081016040528092919081815260200182805461126c906134d9565b80156112b95780601f1061128e576101008083540402835291602001916112b9565b820191906000526020600020905b81548152906001019060200180831161129c57829003601f168201915b5050505050905090565b600960003373ffffffffffffffffffffffffffffffffffffffff1673ffffffffffffffffffffffffffffffffffffffff16815260200190815260200160002060009054906101000a900460ff1661134f576040517f08c379a000000000000000000000000000000000000000000000000000000000815260040161134690613a40565b60405180910390fd5b60008267ffffffffffffffff81111561136b5761136a613140565b5b6040519080825280602002602001820160405280156113995781602001602082028036833780820191505090505b50905060005b8381101561149a57600760008154809291906113ba906138f4565b91905055506113cb33600754612199565b6113d83330600754610a85565b600060405180608001604052808781526020016001815260200185815260200160001515815250905080600860006007548152602001908152602001600020600082015181600001908161142c9190613c0c565b50602082015181600101556040820151816002015560608201518160030160006101000a81548160ff02191690831515021790555090505060075483838151811061147a57611479613896565b5b602002602001018181525050508080611492906138f4565b91505061139f565b503373ffffffffffffffffffffffffffffffffffffffff167f61f7083ec3d23d9b7537413aa3c1829e0bcdc17d2c3769b1dbe1e4ad444bd0c8826040516114e19190613cde565b60405180910390a250505050565b6115016114fa611b72565b83836121b7565b5050565b60096020528060005260406000206000915054906101000a900460ff1681565b611536611530611b72565b83611c33565b611575576040517f08c379a000000000000000000000000000000000000000000000000000000000815260040161156c906136a0565b60405180910390fd5b61158184848484612323565b50505050565b600a60003373ffffffffffffffffffffffffffffffffffffffff1673ffffffffffffffffffffffffffffffffffffffff16815260200190815260200160002060009054906101000a900460ff1615801561162b5750600960003373ffffffffffffffffffffffffffffffffffffffff1673ffffffffffffffffffffffffffffffffffffffff16815260200190815260200160002060009054906101000a900460ff16155b61166a576040517f08c379a000000000000000000000000000000000000000000000000000000000815260040161166190613d72565b60405180910390fd5b6001600a60003373ffffffffffffffffffffffffffffffffffffffff1673ffffffffffffffffffffffffffffffffffffffff16815260200190815260200160002060006101000a81548160ff0219169083151502179055507f54db7a5cb4735e1aac1f53db512d3390390bb6637bd30ad4bf9fc98667d9b9b9336040516116f19190612c34565b60405180910390a1565b606061170682611b27565b600061171061237f565b90506000815111611730576040518060200160405280600081525061175b565b8061173a84612396565b60405160200161174b929190613dce565b6040516020818303038152906040525b915050919050565b8061176d81611fc1565b6117ac576040517f08c379a00000000000000000000000000000000000000000000000000000000081526004016117a39061370c565b60405180910390fd5b3073ffffffffffffffffffffffffffffffffffffffff166117cc82610c5c565b73ffffffffffffffffffffffffffffffffffffffff1614611822576040517f08c379a00000000000000000000000000000000000000000000000000000000081526004016118199061379e565b60405180910390fd5b61182d308484611cc8565b505050565b600a60003373ffffffffffffffffffffffffffffffffffffffff1673ffffffffffffffffffffffffffffffffffffffff16815260200190815260200160002060009054906101000a900460ff161580156118d65750600960003373ffffffffffffffffffffffffffffffffffffffff1673ffffffffffffffffffffffffffffffffffffffff16815260200190815260200160002060009054906101000a900460ff16155b611915576040517f08c379a000000000000000000000000000000000000000000000000000000000815260040161190c90613d72565b60405180910390fd5b6001600960003373ffffffffffffffffffffffffffffffffffffffff1673ffffffffffffffffffffffffffffffffffffffff16815260200190815260200160002060006101000a81548160ff0219169083151502179055507fe07c5c81f3582b5a3dd36cadd627347f87083a40463dcc9eaf0d7a819c55dc143360405161199c9190612c34565b60405180910390a1565b6000600560008473ffffffffffffffffffffffffffffffffffffffff1673ffffffffffffffffffffffffffffffffffffffff16815260200190815260200160002060008373ffffffffffffffffffffffffffffffffffffffff1673ffffffffffffffffffffffffffffffffffffffff16815260200190815260200160002060009054906101000a900460ff16905092915050565b611a42612055565b600073ffffffffffffffffffffffffffffffffffffffff168173ffffffffffffffffffffffffffffffffffffffff1603611ab1576040517f08c379a0000000000000000000000000000000000000000000000000000000008152600401611aa890613e64565b60405180910390fd5b611aba816120d3565b50565b60007f01ffc9a7000000000000000000000000000000000000000000000000000000007bffffffffffffffffffffffffffffffffffffffffffffffffffffffff1916827bffffffffffffffffffffffffffffffffffffffffffffffffffffffff1916149050919050565b611b3081611fc1565b611b6f576040517f08c379a0000000000000000000000000000000000000000000000000000000008152600401611b6690613876565b60405180910390fd5b50565b600033905090565b816004600083815260200190815260200160002060006101000a81548173ffffffffffffffffffffffffffffffffffffffff021916908373ffffffffffffffffffffffffffffffffffffffff160217905550808273ffffffffffffffffffffffffffffffffffffffff16611bed83610c5c565b73ffffffffffffffffffffffffffffffffffffffff167f8c5be1e5ebec7d5bd14f71427d1e84f3dd0314c0f7b2291e5b200ac8c7c3b92560405160405180910390a45050565b600080611c3f83610c5c565b90508073ffffffffffffffffffffffffffffffffffffffff168473ffffffffffffffffffffffffffffffffffffffff161480611c815750611c8081856119a6565b5b80611cbf57508373ffffffffffffffffffffffffffffffffffffffff16611ca7846107b5565b73ffffffffffffffffffffffffffffffffffffffff16145b91505092915050565b8273ffffffffffffffffffffffffffffffffffffffff16611ce882610c5c565b73ffffffffffffffffffffffffffffffffffffffff1614611d3e576040517f08c379a0000000000000000000000000000000000000000000000000000000008152600401611d3590613ef6565b60405180910390fd5b600073ffffffffffffffffffffffffffffffffffffffff168273ffffffffffffffffffffffffffffffffffffffff1603611dad576040517f08c379a0000000000000000000000000000000000000000000000000000000008152600401611da490613f88565b60405180910390fd5b611dba8383836001612464565b8273ffffffffffffffffffffffffffffffffffffffff16611dda82610c5c565b73ffffffffffffffffffffffffffffffffffffffff1614611e30576040517f08c379a0000000000000000000000000000000000000000000000000000000008152600401611e2790613ef6565b60405180910390fd5b6004600082815260200190815260200160002060006101000a81549073ffffffffffffffffffffffffffffffffffffffff02191690556001600360008573ffffffffffffffffffffffffffffffffffffffff1673ffffffffffffffffffffffffffffffffffffffff168152602001908152602001600020600082825403925050819055506001600360008473ffffffffffffffffffffffffffffffffffffffff1673ffffffffffffffffffffffffffffffffffffffff16815260200190815260200160002060008282540192505081905550816002600083815260200190815260200160002060006101000a81548173ffffffffffffffffffffffffffffffffffffffff021916908373ffffffffffffffffffffffffffffffffffffffff160217905550808273ffffffffffffffffffffffffffffffffffffffff168473ffffffffffffffffffffffffffffffffffffffff167fddf252ad1be2c89b69c2b068fc378daa952ba7f163c4a11628f55a4df523b3ef60405160405180910390a4611fbc838383600161246a565b505050565b60008073ffffffffffffffffffffffffffffffffffffffff16611fe383612018565b73ffffffffffffffffffffffffffffffffffffffff1614159050919050565b600081836120109190613fa8565b905092915050565b60006002600083815260200190815260200160002060009054906101000a900473ffffffffffffffffffffffffffffffffffffffff169050919050565b61205d611b72565b73ffffffffffffffffffffffffffffffffffffffff1661207b611207565b73ffffffffffffffffffffffffffffffffffffffff16146120d1576040517f08c379a00000000000000000000000000000000000000000000000000000000081526004016120c890614028565b60405180910390fd5b565b6000600660009054906101000a900473ffffffffffffffffffffffffffffffffffffffff16905081600660006101000a81548173ffffffffffffffffffffffffffffffffffffffff021916908373ffffffffffffffffffffffffffffffffffffffff1602179055508173ffffffffffffffffffffffffffffffffffffffff168173ffffffffffffffffffffffffffffffffffffffff167f8be0079c531659141344cd1fd0a4f28419497f9722a3daafe3b4186f6b6457e060405160405180910390a35050565b6121b3828260405180602001604052806000815250612470565b5050565b8173ffffffffffffffffffffffffffffffffffffffff168373ffffffffffffffffffffffffffffffffffffffff1603612225576040517f08c379a000000000000000000000000000000000000000000000000000000000815260040161221c90614094565b60405180910390fd5b80600560008573ffffffffffffffffffffffffffffffffffffffff1673ffffffffffffffffffffffffffffffffffffffff16815260200190815260200160002060008473ffffffffffffffffffffffffffffffffffffffff1673ffffffffffffffffffffffffffffffffffffffff16815260200190815260200160002060006101000a81548160ff0219169083151502179055508173ffffffffffffffffffffffffffffffffffffffff168373ffffffffffffffffffffffffffffffffffffffff167f17307eab39ab6107e8899845ad3d59bd9653f200f220920489ca2b5937696c31836040516123169190612ac3565b60405180910390a3505050565b61232e848484611cc8565b61233a848484846124cb565b612379576040517f08c379a000000000000000000000000000000000000000000000000000000000815260040161237090614126565b60405180910390fd5b50505050565b606060405180602001604052806000815250905090565b6060600060016123a584612652565b01905060008167ffffffffffffffff8111156123c4576123c3613140565b5b6040519080825280601f01601f1916602001820160405280156123f65781602001600182028036833780820191505090505b509050600082602001820190505b600115612459578080600190039150507f3031323334353637383961626364656600000000000000000000000000000000600a86061a8153600a858161244d5761244c614146565b5b04945060008503612404575b819350505050919050565b50505050565b50505050565b61247a83836127a5565b61248760008484846124cb565b6124c6576040517f08c379a00000000000000000000000000000000000000000000000000000000081526004016124bd90614126565b60405180910390fd5b505050565b60006124ec8473ffffffffffffffffffffffffffffffffffffffff166129c2565b15612645578373ffffffffffffffffffffffffffffffffffffffff1663150b7a02612515611b72565b8786866040518563ffffffff1660e01b815260040161253794939291906141ca565b6020604051808303816000875af192505050801561257357506040513d601f19601f82011682018060405250810190612570919061422b565b60015b6125f5573d80600081146125a3576040519150601f19603f3d011682016040523d82523d6000602084013e6125a8565b606091505b5060008151036125ed576040517f08c379a00000000000000000000000000000000000000000000000000000000081526004016125e490614126565b60405180910390fd5b805181602001fd5b63150b7a0260e01b7bffffffffffffffffffffffffffffffffffffffffffffffffffffffff1916817bffffffffffffffffffffffffffffffffffffffffffffffffffffffff19161491505061264a565b600190505b949350505050565b600080600090507a184f03e93ff9f4daa797ed6e38ed64bf6a1f01000000000000000083106126b0577a184f03e93ff9f4daa797ed6e38ed64bf6a1f01000000000000000083816126a6576126a5614146565b5b0492506040810190505b6d04ee2d6d415b85acef810000000083106126ed576d04ee2d6d415b85acef810000000083816126e3576126e2614146565b5b0492506020810190505b662386f26fc10000831061271c57662386f26fc10000838161271257612711614146565b5b0492506010810190505b6305f5e1008310612745576305f5e100838161273b5761273a614146565b5b0492506008810190505b612710831061276a5761271083816127605761275f614146565b5b0492506004810190505b6064831061278d576064838161278357612782614146565b5b0492506002810190505b600a831061279c576001810190505b80915050919050565b600073ffffffffffffffffffffffffffffffffffffffff168273ffffffffffffffffffffffffffffffffffffffff1603612814576040517f08c379a000000000000000000000000000000000000000000000000000000000815260040161280b906142a4565b60405180910390fd5b61281d81611fc1565b1561285d576040517f08c379a000000000000000000000000000000000000000000000000000000000815260040161285490614310565b60405180910390fd5b61286b600083836001612464565b61287481611fc1565b156128b4576040517f08c379a00000000000000000000000000000000000000000000000000000000081526004016128ab90614310565b60405180910390fd5b6001600360008473ffffffffffffffffffffffffffffffffffffffff1673ffffffffffffffffffffffffffffffffffffffff16815260200190815260200160002060008282540192505081905550816002600083815260200190815260200160002060006101000a81548173ffffffffffffffffffffffffffffffffffffffff021916908373ffffffffffffffffffffffffffffffffffffffff160217905550808273ffffffffffffffffffffffffffffffffffffffff16600073ffffffffffffffffffffffffffffffffffffffff167fddf252ad1be2c89b69c2b068fc378daa952ba7f163c4a11628f55a4df523b3ef60405160405180910390a46129be60008383600161246a565b5050565b6000808273ffffffffffffffffffffffffffffffffffffffff163b119050919050565b60405180608001604052806060815260200160008152602001600081526020016000151581525090565b6000604051905090565b600080fd5b600080fd5b60007fffffffff0000000000000000000000000000000000000000000000000000000082169050919050565b612a5881612a23565b8114612a6357600080fd5b50565b600081359050612a7581612a4f565b92915050565b600060208284031215612a9157612a90612a19565b5b6000612a9f84828501612a66565b91505092915050565b60008115159050919050565b612abd81612aa8565b82525050565b6000602082019050612ad86000830184612ab4565b92915050565b600081519050919050565b600082825260208201905092915050565b60005b83811015612b18578082015181840152602081019050612afd565b60008484015250505050565b6000601f19601f8301169050919050565b6000612b4082612ade565b612b4a8185612ae9565b9350612b5a818560208601612afa565b612b6381612b24565b840191505092915050565b60006020820190508181036000830152612b888184612b35565b905092915050565b6000819050919050565b612ba381612b90565b8114612bae57600080fd5b50565b600081359050612bc081612b9a565b92915050565b600060208284031215612bdc57612bdb612a19565b5b6000612bea84828501612bb1565b91505092915050565b600073ffffffffffffffffffffffffffffffffffffffff82169050919050565b6000612c1e82612bf3565b9050919050565b612c2e81612c13565b82525050565b6000602082019050612c496000830184612c25565b92915050565b612c5881612c13565b8114612c6357600080fd5b50565b600081359050612c7581612c4f565b92915050565b60008060408385031215612c9257612c91612a19565b5b6000612ca085828601612c66565b9250506020612cb185828601612bb1565b9150509250929050565b600060208284031215612cd157612cd0612a19565b5b6000612cdf84828501612c66565b91505092915050565b612cf181612b90565b82525050565b60006080820190508181036000830152612d118187612b35565b9050612d206020830186612ce8565b612d2d6040830185612ce8565b612d3a6060830184612ab4565b95945050505050565b600080fd5b600080fd5b600080fd5b60008083601f840112612d6857612d67612d43565b5b8235905067ffffffffffffffff811115612d8557612d84612d48565b5b602083019150836001820283011115612da157612da0612d4d565b5b9250929050565b600080600080600060808688031215612dc457612dc3612a19565b5b6000612dd288828901612c66565b9550506020612de388828901612c66565b9450506040612df488828901612bb1565b935050606086013567ffffffffffffffff811115612e1557612e14612a1e565b5b612e2188828901612d52565b92509250509295509295909350565b612e3981612a23565b82525050565b6000602082019050612e546000830184612e30565b92915050565b600080600060608486031215612e7357612e72612a19565b5b6000612e8186828701612c66565b9350506020612e9286828701612c66565b9250506040612ea386828701612bb1565b9150509250925092565b600081519050919050565b600082825260208201905092915050565b6000819050602082019050919050565b612ee281612b90565b82525050565b6000612ef48383612ed9565b60208301905092915050565b6000602082019050919050565b6000612f1882612ead565b612f228185612eb8565b9350612f2d83612ec9565b8060005b83811015612f5e578151612f458882612ee8565b9750612f5083612f00565b925050600181019050612f31565b5085935050505092915050565b600081519050919050565b600082825260208201905092915050565b6000819050602082019050919050565b600082825260208201905092915050565b6000612fb382612ade565b612fbd8185612f97565b9350612fcd818560208601612afa565b612fd681612b24565b840191505092915050565b612fea81612aa8565b82525050565b6000608083016000830151848203600086015261300d8282612fa8565b91505060208301516130226020860182612ed9565b5060408301516130356040860182612ed9565b5060608301516130486060860182612fe1565b508091505092915050565b600061305f8383612ff0565b905092915050565b6000602082019050919050565b600061307f82612f6b565b6130898185612f76565b93508360208202850161309b85612f87565b8060005b858110156130d757848403895281516130b88582613053565b94506130c383613067565b925060208a0199505060018101905061309f565b50829750879550505050505092915050565b600060408201905081810360008301526131038185612f0d565b905081810360208301526131178184613074565b90509392505050565b60006020820190506131356000830184612ce8565b92915050565b600080fd5b7f4e487b7100000000000000000000000000000000000000000000000000000000600052604160045260246000fd5b61317882612b24565b810181811067ffffffffffffffff8211171561319757613196613140565b5b80604052505050565b60006131aa612a0f565b90506131b6828261316f565b919050565b600067ffffffffffffffff8211156131d6576131d5613140565b5b6131df82612b24565b9050602081019050919050565b82818337600083830152505050565b600061320e613209846131bb565b6131a0565b90508281526020810184848401111561322a5761322961313b565b5b6132358482856131ec565b509392505050565b600082601f83011261325257613251612d43565b5b81356132628482602086016131fb565b91505092915050565b60008060006060848603121561328457613283612a19565b5b600084013567ffffffffffffffff8111156132a2576132a1612a1e565b5b6132ae8682870161323d565b93505060206132bf86828701612bb1565b92505060406132d086828701612bb1565b9150509250925092565b6132e381612aa8565b81146132ee57600080fd5b50565b600081359050613300816132da565b92915050565b6000806040838503121561331d5761331c612a19565b5b600061332b85828601612c66565b925050602061333c858286016132f1565b9150509250929050565b600067ffffffffffffffff82111561336157613360613140565b5b61336a82612b24565b9050602081019050919050565b600061338a61338584613346565b6131a0565b9050828152602081018484840111156133a6576133a561313b565b5b6133b18482856131ec565b509392505050565b600082601f8301126133ce576133cd612d43565b5b81356133de848260208601613377565b91505092915050565b6000806000806080858703121561340157613400612a19565b5b600061340f87828801612c66565b945050602061342087828801612c66565b935050604061343187828801612bb1565b925050606085013567ffffffffffffffff81111561345257613451612a1e565b5b61345e878288016133b9565b91505092959194509250565b6000806040838503121561348157613480612a19565b5b600061348f85828601612c66565b92505060206134a085828601612c66565b9150509250929050565b7f4e487b7100000000000000000000000000000000000000000000000000000000600052602260045260246000fd5b600060028204905060018216806134f157607f821691505b602082108103613504576135036134aa565b5b50919050565b7f4552433732313a20617070726f76616c20746f2063757272656e74206f776e6560008201527f7200000000000000000000000000000000000000000000000000000000000000602082015250565b6000613566602183612ae9565b91506135718261350a565b604082019050919050565b6000602082019050818103600083015261359581613559565b9050919050565b7f4552433732313a20617070726f76652063616c6c6572206973206e6f7420746f60008201527f6b656e206f776e6572206f7220617070726f76656420666f7220616c6c000000602082015250565b60006135f8603d83612ae9565b91506136038261359c565b604082019050919050565b60006020820190508181036000830152613627816135eb565b9050919050565b7f4552433732313a2063616c6c6572206973206e6f7420746f6b656e206f776e6560008201527f72206f7220617070726f76656400000000000000000000000000000000000000602082015250565b600061368a602d83612ae9565b91506136958261362e565b604082019050919050565b600060208201905081810360008301526136b98161367d565b9050919050565b7f546f6b656e20646f6573206e6f74206578697374000000000000000000000000600082015250565b60006136f6601483612ae9565b9150613701826136c0565b602082019050919050565b60006020820190508181036000830152613725816136e9565b9050919050565b7f546f6b656e206973206e6f74206f776e65642062792074686520636f6e74726160008201527f6374000000000000000000000000000000000000000000000000000000000000602082015250565b6000613788602283612ae9565b91506137938261372c565b604082019050919050565b600060208201905081810360008301526137b78161377b565b9050919050565b7f546f6b656e20686173206e6f207175616e746974792072656d61696e696e6700600082015250565b60006137f4601f83612ae9565b91506137ff826137be565b602082019050919050565b60006020820190508181036000830152613823816137e7565b9050919050565b7f4552433732313a20696e76616c696420746f6b656e2049440000000000000000600082015250565b6000613860601883612ae9565b915061386b8261382a565b602082019050919050565b6000602082019050818103600083015261388f81613853565b9050919050565b7f4e487b7100000000000000000000000000000000000000000000000000000000600052603260045260246000fd5b7f4e487b7100000000000000000000000000000000000000000000000000000000600052601160045260246000fd5b60006138ff82612b90565b91507fffffffffffffffffffffffffffffffffffffffffffffffffffffffffffffffff8203613931576139306138c5565b5b600182019050919050565b7f4552433732313a2061646472657373207a65726f206973206e6f74206120766160008201527f6c6964206f776e65720000000000000000000000000000000000000000000000602082015250565b6000613998602983612ae9565b91506139a38261393c565b604082019050919050565b600060208201905081810360008301526139c78161398b565b9050919050565b7f41646472657373206973206e6f7420726567697374657265642061732061206460008201527f6f6e6f722e000000000000000000000000000000000000000000000000000000602082015250565b6000613a2a602583612ae9565b9150613a35826139ce565b604082019050919050565b60006020820190508181036000830152613a5981613a1d565b9050919050565b60008190508160005260206000209050919050565b60006020601f8301049050919050565b600082821b905092915050565b600060088302613ac27fffffffffffffffffffffffffffffffffffffffffffffffffffffffffffffffff82613a85565b613acc8683613a85565b95508019841693508086168417925050509392505050565b6000819050919050565b6000613b09613b04613aff84612b90565b613ae4565b612b90565b9050919050565b6000819050919050565b613b2383613aee565b613b37613b2f82613b10565b848454613a92565b825550505050565b600090565b613b4c613b3f565b613b57818484613b1a565b505050565b5b81811015613b7b57613b70600082613b44565b600181019050613b5d565b5050565b601f821115613bc057613b9181613a60565b613b9a84613a75565b81016020851015613ba9578190505b613bbd613bb585613a75565b830182613b5c565b50505b505050565b600082821c905092915050565b6000613be360001984600802613bc5565b1980831691505092915050565b6000613bfc8383613bd2565b9150826002028217905092915050565b613c1582612ade565b67ffffffffffffffff811115613c2e57613c2d613140565b5b613c3882546134d9565b613c43828285613b7f565b600060209050601f831160018114613c765760008415613c64578287015190505b613c6e8582613bf0565b865550613cd6565b601f198416613c8486613a60565b60005b82811015613cac57848901518255600182019150602085019450602081019050613c87565b86831015613cc95784890151613cc5601f891682613bd2565b8355505b6001600288020188555050505b505050505050565b60006020820190508181036000830152613cf88184612f0d565b905092915050565b7f4164647265737320697320616c7265616479207265676973746572656420617360008201527f20612075736572206f7220646f6e6f722e000000000000000000000000000000602082015250565b6000613d5c603183612ae9565b9150613d6782613d00565b604082019050919050565b60006020820190508181036000830152613d8b81613d4f565b9050919050565b600081905092915050565b6000613da882612ade565b613db28185613d92565b9350613dc2818560208601612afa565b80840191505092915050565b6000613dda8285613d9d565b9150613de68284613d9d565b91508190509392505050565b7f4f776e61626c653a206e6577206f776e657220697320746865207a65726f206160008201527f6464726573730000000000000000000000000000000000000000000000000000602082015250565b6000613e4e602683612ae9565b9150613e5982613df2565b604082019050919050565b60006020820190508181036000830152613e7d81613e41565b9050919050565b7f4552433732313a207472616e736665722066726f6d20696e636f72726563742060008201527f6f776e6572000000000000000000000000000000000000000000000000000000602082015250565b6000613ee0602583612ae9565b9150613eeb82613e84565b604082019050919050565b60006020820190508181036000830152613f0f81613ed3565b9050919050565b7f4552433732313a207472616e7366657220746f20746865207a65726f2061646460008201527f7265737300000000000000000000000000000000000000000000000000000000602082015250565b6000613f72602483612ae9565b9150613f7d82613f16565b604082019050919050565b60006020820190508181036000830152613fa181613f65565b9050919050565b6000613fb382612b90565b9150613fbe83612b90565b9250828203905081811115613fd657613fd56138c5565b5b92915050565b7f4f776e61626c653a2063616c6c6572206973206e6f7420746865206f776e6572600082015250565b6000614012602083612ae9565b915061401d82613fdc565b602082019050919050565b6000602082019050818103600083015261404181614005565b9050919050565b7f4552433732313a20617070726f766520746f2063616c6c657200000000000000600082015250565b600061407e601983612ae9565b915061408982614048565b602082019050919050565b600060208201905081810360008301526140ad81614071565b9050919050565b7f4552433732313a207472616e7366657220746f206e6f6e20455243373231526560008201527f63656976657220696d706c656d656e7465720000000000000000000000000000602082015250565b6000614110603283612ae9565b915061411b826140b4565b604082019050919050565b6000602082019050818103600083015261413f81614103565b9050919050565b7f4e487b7100000000000000000000000000000000000000000000000000000000600052601260045260246000fd5b600081519050919050565b600082825260208201905092915050565b600061419c82614175565b6141a68185614180565b93506141b6818560208601612afa565b6141bf81612b24565b840191505092915050565b60006080820190506141df6000830187612c25565b6141ec6020830186612c25565b6141f96040830185612ce8565b818103606083015261420b8184614191565b905095945050505050565b60008151905061422581612a4f565b92915050565b60006020828403121561424157614240612a19565b5b600061424f84828501614216565b91505092915050565b7f4552433732313a206d696e7420746f20746865207a65726f2061646472657373600082015250565b600061428e602083612ae9565b915061429982614258565b602082019050919050565b600060208201905081810360008301526142bd81614281565b9050919050565b7f4552433732313a20746f6b656e20616c7265616479206d696e74656400000000600082015250565b60006142fa601c83612ae9565b9150614305826142c4565b602082019050919050565b60006020820190508181036000830152614329816142ed565b905091905056fea26469706673582212200640a164fde7b0a10fbab2085603750259d10acac3e580aca2d16b6f6784a55564736f6c63430008130033",
  "immutableReferences": {},
  "source": "//SPDX-License-Identifier: UNLICENSED\npragma solidity ^0.8.0;\n\nimport \"@openzeppelin/contracts/token/ERC721/ERC721.sol\";\nimport \"@openzeppelin/contracts/access/Ownable.sol\";\nimport \"@openzeppelin/contracts/utils/math/SafeMath.sol\";\n\ncontract BlockchainBites is ERC721, Ownable {\n    using SafeMath for uint256;\n\n    uint256 private tokenId = 0;\n    struct Food {\n        string name;\n        uint256 quantity;\n        uint256 expiryDate;\n        bool isGiven;\n    }\n\n    mapping(uint256 => Food) public foods;\n    mapping(address => bool) public registeredDonors;\n    mapping(address => bool) public registeredUsers;\n\n    event DonorRegistered(address donor);\n    event UserRegistered(address user);\n    event FoodDonated(address indexed donor, uint256[] tokenIds);\n    event FoodOwnershipTransferred(address indexed owner, uint256 tokenId);\n\n    modifier onlyNewAddress() {\n        require(\n            !registeredUsers[msg.sender] && !registeredDonors[msg.sender],\n            \"Address is already registered as a user or donor.\"\n        );\n        _;\n    }\n\n    modifier onlyRegisteredDonor() {\n        require(\n            registeredDonors[msg.sender],\n            \"Address is not registered as a donor.\"\n        );\n        _;\n    }\n\n    modifier onlyOwnedToken(uint256 tokenId) {\n        require(_exists(tokenId), \"Token does not exist\");\n        require(\n            ownerOf(tokenId) == address(this),\n            \"Token is not owned by the contract\"\n        );\n        _;\n    }\n\n    constructor() ERC721(\"FoodToken\", \"FT\") {}\n\n    function registerAsDonors() public onlyNewAddress {\n        registeredDonors[msg.sender] = true;\n        emit DonorRegistered(msg.sender);\n    }\n\n    function registerAsUsers() public onlyNewAddress {\n        registeredUsers[msg.sender] = true;\n        emit UserRegistered(msg.sender);\n    }\n\n    function donateFood(\n        string memory name,\n        uint256 quantity,\n        uint256 expiryDate\n    ) public payable onlyRegisteredDonor {\n        // Create a new food token for each unit of donated food and transfer ownership to the donor\n        uint256[] memory donatedTokenIds = new uint256[](quantity);\n        for (uint256 i = 0; i < quantity; i++) {\n            tokenId++;\n            _safeMint(msg.sender, tokenId);\n            // Transfer ownership of the token from the donor to the contract\n            safeTransferFrom(msg.sender, address(this), tokenId);\n\n            // Create a new food item in memory\n            Food memory food = Food(name, 1, expiryDate, false);\n            // Assign the new food item to an existing storage location using the foods mapping\n            foods[tokenId] = food;\n            donatedTokenIds[i] = tokenId;\n        }\n        emit FoodDonated(msg.sender, donatedTokenIds);\n    }\n\n    function viewFoodItems() public returns (uint256[] memory, Food[] memory) {\n        address contractOwner = owner();\n        bool isRegisteredUser = registeredUsers[msg.sender];\n        bool isRegisteredDonor = registeredDonors[msg.sender];\n\n        uint256[] memory tokenIds = new uint256[](tokenId);\n        Food[] memory foodDetails = new Food[](tokenId);\n\n        uint256 index = 0;\n        for (uint256 i = 1; i <= tokenId; i++) {\n            bool isOwnedByContract = (ownerOf(i) == contractOwner);\n\n            // Only show food items owned by the NGO to users\n            if (isRegisteredUser && isOwnedByContract) {\n                continue;\n            }\n\n            // Only show food items donated by the current donor to the NGO\n            if (isRegisteredDonor && isOwnedByContract) {\n                continue;\n            }\n\n            tokenIds[index] = i;\n            foodDetails[index] = foods[i];\n            index++;\n\n            //  emit DebugMsg(i, foods[i].name, foods[i].quantity, foods[i].isGiven);\n        }\n\n        // Resize arrays to remove any unused elements\n        uint256[] memory finalTokenIds = new uint256[](index);\n        Food[] memory finalFoodDetails = new Food[](index);\n        for (uint256 i = 0; i < index; i++) {\n            finalTokenIds[i] = tokenIds[i];\n            finalFoodDetails[i] = foodDetails[i];\n        }\n        return (finalTokenIds, finalFoodDetails);\n    }\n\n    function decrementFoodItem(uint256 donatedtokenId)\n        public\n        onlyOwnedToken(donatedtokenId)\n    {\n        // Decrement the quantity of a food token and track when it was given to a user\n        Food storage food = foods[donatedtokenId];\n        require(food.quantity > 0, \"Token has no quantity remaining\");\n        food.quantity = food.quantity.sub(1);\n        // Track when the token was given to a user\n        food.isGiven = true;\n        transferFoodToUser(msg.sender, donatedtokenId);\n        emit FoodOwnershipTransferred(msg.sender, donatedtokenId);\n    }\n\n    function transferFoodToUser(address to, uint256 donatedtokenId)\n        public\n        onlyOwnedToken(donatedtokenId)\n    {\n        // Transfer ownership of a food token to a new owner\n        _transfer(address(this), to, donatedtokenId);\n    }\n\n    function onERC721Received(\n        address,\n        address,\n        uint256,\n        bytes calldata\n    ) external pure returns (bytes4) {\n        return\n            bytes4(\n                keccak256(\"onERC721Received(address,address,uint256,bytes)\")\n            );\n    }\n}\n",
  "sourcePath": "C:\\Users\\Rachna\\Documents\\Spring 2023\\BlockChain\\Phase2\\Phase2\\bites-contract\\contracts\\BlockchainBites.sol",
  "compiler": {
    "name": "solc",
    "version": "0.8.19+commit.7dd6d404.Emscripten.clang"
  },
  "schemaVersion": "3.4.13",
  "updatedAt": "2023-05-09T13:35:26.942Z",
  "networkType": "ethereum",
  "devdoc": {
    "events": {
      "Approval(address,address,uint256)": {
        "details": "Emitted when `owner` enables `approved` to manage the `tokenId` token."
      },
      "ApprovalForAll(address,address,bool)": {
        "details": "Emitted when `owner` enables or disables (`approved`) `operator` to manage all of its assets."
      },
      "Transfer(address,address,uint256)": {
        "details": "Emitted when `tokenId` token is transferred from `from` to `to`."
      }
    },
    "kind": "dev",
    "methods": {
      "approve(address,uint256)": {
        "details": "See {IERC721-approve}."
      },
      "balanceOf(address)": {
        "details": "See {IERC721-balanceOf}."
      },
      "getApproved(uint256)": {
        "details": "See {IERC721-getApproved}."
      },
      "isApprovedForAll(address,address)": {
        "details": "See {IERC721-isApprovedForAll}."
      },
      "name()": {
        "details": "See {IERC721Metadata-name}."
      },
      "owner()": {
        "details": "Returns the address of the current owner."
      },
      "ownerOf(uint256)": {
        "details": "See {IERC721-ownerOf}."
      },
      "renounceOwnership()": {
        "details": "Leaves the contract without owner. It will not be possible to call `onlyOwner` functions anymore. Can only be called by the current owner. NOTE: Renouncing ownership will leave the contract without an owner, thereby removing any functionality that is only available to the owner."
      },
      "safeTransferFrom(address,address,uint256)": {
        "details": "See {IERC721-safeTransferFrom}."
      },
      "safeTransferFrom(address,address,uint256,bytes)": {
        "details": "See {IERC721-safeTransferFrom}."
      },
      "setApprovalForAll(address,bool)": {
        "details": "See {IERC721-setApprovalForAll}."
      },
      "supportsInterface(bytes4)": {
        "details": "See {IERC165-supportsInterface}."
      },
      "symbol()": {
        "details": "See {IERC721Metadata-symbol}."
      },
      "tokenURI(uint256)": {
        "details": "See {IERC721Metadata-tokenURI}."
      },
      "transferFrom(address,address,uint256)": {
        "details": "See {IERC721-transferFrom}."
      },
      "transferOwnership(address)": {
        "details": "Transfers ownership of the contract to a new account (`newOwner`). Can only be called by the current owner."
      }
    },
    "version": 1
  },
  "userdoc": {
    "kind": "user",
    "methods": {},
    "version": 1
  }
}